{
  "_format": "hh-sol-artifact-1",
  "contractName": "Transactions",
  "sourceName": "contracts/Transactions.sol",
  "abi": [
    {
      "anonymous": false,
      "inputs": [
        {
          "indexed": false,
          "internalType": "address",
          "name": "from",
          "type": "address"
        },
        {
          "indexed": false,
          "internalType": "address",
          "name": "receiver",
          "type": "address"
        },
        {
          "indexed": false,
          "internalType": "uint256",
          "name": "amount",
          "type": "uint256"
        }
      ],
      "name": "Transfer",
      "type": "event"
    },
    {
      "inputs": [
        {
          "internalType": "address payable",
          "name": "receiver",
          "type": "address"
        },
        {
          "internalType": "uint256",
          "name": "amount",
          "type": "uint256"
        }
      ],
      "name": "addToBlockChain",
      "outputs": [],
      "stateMutability": "nonpayable",
      "type": "function"
    }
  ],
  "bytecode": "0x608060405234801561001057600080fd5b50610349806100206000396000f3fe608060405234801561001057600080fd5b506004361061002b5760003560e01c80634434bd1114610030575b600080fd5b61004a600480360381019061004591906101c1565b61004c565b005b600060405180606001604052803373ffffffffffffffffffffffffffffffffffffffff1681526020018473ffffffffffffffffffffffffffffffffffffffff16815260200183815250908060018154018082558091505060019003906000526020600020906003020160009091909190915060008201518160000160006101000a81548173ffffffffffffffffffffffffffffffffffffffff021916908373ffffffffffffffffffffffffffffffffffffffff16021790555060208201518160010160006101000a81548173ffffffffffffffffffffffffffffffffffffffff021916908373ffffffffffffffffffffffffffffffffffffffff1602179055506040820151816002015550507fddf252ad1be2c89b69c2b068fc378daa952ba7f163c4a11628f55a4df523b3ef33838360405161018b9392919061022a565b60405180910390a15050565b6000813590506101a6816102e5565b92915050565b6000813590506101bb816102fc565b92915050565b600080604083850312156101d457600080fd5b60006101e285828601610197565b92505060206101f3858286016101ac565b9150509250929050565b610206816102af565b82525050565b61021581610261565b82525050565b610224816102a5565b82525050565b600060608201905061023f600083018661020c565b61024c60208301856101fd565b610259604083018461021b565b949350505050565b600061026c82610285565b9050919050565b600061027e82610285565b9050919050565b600073ffffffffffffffffffffffffffffffffffffffff82169050919050565b6000819050919050565b60006102ba826102c1565b9050919050565b60006102cc826102d3565b9050919050565b60006102de82610285565b9050919050565b6102ee81610273565b81146102f957600080fd5b50565b610305816102a5565b811461031057600080fd5b5056fea2646970667358221220faad3b090572d621684d9f8bcac92edd22212a491b5fa04a883f814c49dc1dd564736f6c63430008000033",
  "linkReferences": {},
  "deployedLinkReferences": {}
}